:100000000C9440010C942C150C9453150C94F10A8B
:100010000C94F10A0C94F10A0C9468010C94680198
:100020000C9468010C9468010C9468010C946801AC
:100030000C9468010C9468010C9468010C9468019C
:100040000C947A150C9468010C94F6130C942814F3
:100050000C9468010C9468010C9468010C9468017C
:100060000C9468010C94680107634236B79BD8A7CB
:100070001A39685618AEBAAB558C1D3CB7CC5763CD
:10008000BD6DEDFD753EF6177231BF000000803F7B
:1000900008000000BE922449123EABAAAA2ABECD97
:1000A000CCCC4C3E00000080BEABAAAAAA3E000009
:1000B0000000BF000000803F000000000008417801
:1000C000D3BB4387D1133D190E3CC3BD4282AD2B38
:1000D0003E68EC8276BED98FE1A93E4C80EFFFBE30
:1000E00001C4FF7F3F00000000004E414E494E49D1
:1000F0005459494E46CDCCCC3D0AD7233C17B7D1F5
:100100003877CC2B329595E6241FB14F0A0000209A
:10011000410000C84200401C4620BCBE4CCA1B0E19
:100120005AAEC59D7400407A10F35A00A0724E1862
:10013000090010A5D4E80000E87648170000E40B99
:1001400054020000CA9A3B000000E1F5050000805F
:10015000969800000040420F000000A086010000B9
:1001600000102700000000E8030000000064000009
:100170000000000A00000000000100000000002C48
:1001800076D888DC674F0823DFC1DFAE59E1B1B70D
:1001900096E5E3E453C63AE651997696E8E6C284DA
:1001A00026EB898C9B62ED407C6FFCEFBC9C9F40F2
:1001B000F2BAA56FA5F490055A2AF75C936B6CF917
:1001C000676DC11BFCE0E40D47FEF520E6B500D0ED
:1001D000ED902E0300943577050080841E08000002
:1001E000204E0A000000C80C333333330F986E12D0
:1001F000831141EF8D2114893BE65516CFFEE6DBD6
:1002000018D1844B381BF77C1D901DA4BBE424201F
:100210003284725E228100C9F124ECA1E53D270001
:1002200000000800020100000304070000000000B5
:1002300000000001020408102040800102040810A0
:10024000200102040810200404040404040404022D
:10025000020202020203030303030300000000235F
:10026000002600290000000000250028002B0000C7
:10027000000000240027002A000023095814300938
:1002800011241FBECFEFD8E0DEBFCDBF11E0A0E04C
:10029000B1E0E6E4F3E402C005900D92AE3BB10795
:1002A000D9F723E0AEEBB1E001C01D92AC36B20746
:1002B000E1F711E0CFE3D1E004C02197FE010E94F5
:1002C000621ACD33D107C9F70E9486140C94962187
:1002D0000C9400001092140281E0809313020895A0
:1002E000EBE1F2E0108211821282138214821582F5
:1002F00008954F925F926F927F92AF92BF92CF928A
:10030000DF92EF92FF920F931F93CF93DF93CDB7BE
:10031000DEB76C970FB6F894DEBF0FBECDBF6C0191
:10032000109213020E94C41560930E0270930F0284
:10033000809310029093110261E08FE00E94DC161E
:1003400060E08EE00E94DC1660E089E00E94DC162E
:1003500065E070E080E090E00E94F51585E00E9485
:100360000C17892B41F0E0911902F0911A02E55E19
:10037000FD4F81E019C086E00E940C17892B41F0E7
:10038000E0911902F0911A02E55EFD4F84E00CC085
:1003900087E00E940C17892BC1F0E0911902F091BF
:1003A0001A02E55EFD4F87E0808361E08AE00E94EB
:1003B000DC1662E370E080E090E00E94F51560E0FA
:1003C0008AE00E94DC1690E015C088E00E940C17BD
:1003D000892B09F42EC110921A0210921902109260
:1003E00012020E94700163E271E080EC92E00E94D0
:1003F000F91491E02091190230911A02253031054B
:100400000CF4EAC010921502109216021092170214
:10041000109218020091190210911A02015011094C
:100420008BE1E82E82E0F82E17FD98C05701B80145
:10043000012E000C880B990B0E94F60F9B01AC015A
:1004400060E070E080E291E40E9454112B013C01D5
:10045000F701608170E080E090E00E94F60FA30158
:1004600092010E94E7100E94370FAB01BC0122E00D
:10047000CE0101960E94A5184AE0F70161917F0123
:10048000CE0107960E94EF174AE0B801CE014396CD
:100490000E941C186EE071E0CE010D960E94A31719
:1004A000BE016D5E7F4FCE010D960E9416196FE161
:1004B00071E00E942919BE01695F7F4F0E941619E1
:1004C0006FE171E00E942919BE016F5F7F4F0E94AA
:1004D0001619BC0180EC92E00E94E714CE010D9643
:1004E0000E943517CE0143960E943517CE0107961C
:1004F0000E943517CE0101960E943517F5016081E3
:1005000070E080E090E00E94F60FA30192010E944B
:10051000E7100E94370F9B01AC01609115027091AA
:1005200016028091170290911802298F3A8F4B8FF3
:100530005C8F0E94F40F298D3A8D4B8D5C8D0E944B
:10054000CB0E0E94C50F6093150270931602809324
:100550001702909318020150110966CF40911502BD
:100560005091160260911702709118022AE0CE0194
:1005700007960E94481865E171E0CE0101960E943D
:10058000A317BE01695F7F4FCE0101960E94161925
:10059000BC0180EC92E00E94E714CE0101960E941B
:1005A0003517CE0107960E9435170E9470011092F0
:1005B0001A021092190281E08093120280911502B2
:1005C00090911602A0911702B0911802F601918B3A
:1005D000808BB38BA28B0AC0911108C02F5F3F4F55
:1005E00030931A02209319021092120261E08FE0F8
:1005F0000E94DC1661E08EE00E94DC1661E089E07A
:100600000E94DC16109213026C960FB6F894DEBFAF
:100610000FBECDBFDF91CF911F910F91FF90EF9053
:10062000DF90CF90BF90AF907F906F905F904F9092
:10063000089560E08FE00E94DC1660E08EE00E948A
:10064000DC1661E089E00E94DC1665E070E080E085
:1006500090E00E94F51585E00E940C17892B41F06F
:10066000E0911902F0911A02E55EFD4F83E09CCE05
:1006700086E00E940C17892B41F0E0911902F0915D
:100680001A02E55EFD4F86E08FCE87E00E940C17D0
:10069000892B41F0E0911902F0911A02E55EFD4FBD
:1006A00089E082CE88E00E940C17892B09F0AACE3F
:1006B00060E08FE00E94DC1661E08EE00E94DC16B4
:1006C00060E089E00E94DC1665E070E080E090E088
:1006D0000E94F51585E00E940C17892B41F0E091EE
:1006E0001902F0911A02E55EFD4F82E05DCE86E0D0
:1006F0000E940C17892BF1F0E0911902F0911A0277
:10070000E55EFD4F85E0808361E08AE00E94DC16B3
:1007100062E370E080E090E00E94F51560E08AE01E
:100720000E94DC1662E370E080E090E00E94F51524
:1007300061E046CE87E00E940C17892B41F0E091E2
:100740001902F0911A02E55EFD4F88E02DCE88E097
:100750000E940C17892B09F449CFE0911902F091FE
:100760001A02E55EFD4F108220CE0F931F93209159
:100770001302222321F020910802222379F10E9402
:10078000C41560930A0270930B0280930C0290933D
:100790000D0220911402211127C000910E02109128
:1007A0000F022091100230911102DC01CB01801B5D
:1007B000910BA20BB30B0091060110910701209140
:1007C00008013091090180179107A207B30760F073
:1007D00081E0809314021092080206C00E94790101
:1007E00081E080930802CBCF1F910F910895AF92C3
:1007F000BF92CF92DF92EF920F9361E08FE00E9461
:10080000A01661E08EE00E94A01661E089E00E94DF
:10081000A01661E08FE00E94DC1661E08EE00E948D
:10082000DC1661E089E00E94DC1660E085E00E9451
:10083000A01660E086E00E94A01660E087E00E94BB
:10084000A01660E088E00E94A01660E082E00E94AE
:10085000A01684EEA82E81E0B82E92E1C92ED12CEC
:1008600023E1E22E01E02EE040E855E260E070E096
:1008700085EC91E00E94C80C60E082E00E94DC16EA
:1008800043E050E06AE671E080E00E940C1526E04B
:1008900040E855E260E070E080EC92E00E94911345
:1008A00067E371E080EC92E00E94F91466E471E085
:1008B00085EC91E00F91EF90DF90CF90BF90AF90DB
:1008C0000C94F9142F923F924F925F926F927F9205
:1008D0008F929F92AF92BF92CF92DF92EF92FF9250
:1008E0000F931F93CF93DF93CDB7DEB7CA55D109CE
:1008F0000FB6F894DEBF0FBECDBF8C0165E571E089
:10090000CE0101960E94A31740E050E0BE016F5F48
:100910007F4FC8010E946119F82ECE0101960E94F6
:100920003517FF2009F485C2B801CE0101960E9457
:10093000CF1721E030E04CE2BE016F5F7F4FCE0168
:10094000875B9F4F0E945309CE0101960E94351785
:10095000B801CE0101960E94CF1722E030E04CE2B0
:10096000BE016F5F7F4FCE018D5B9F4F0E94530989
:10097000CE0101960E943517B801CE0101960E9462
:10098000CF1723E030E04CE2BE016F5F7F4FCE0116
:10099000CD960E945309CE0101960E943517B801E9
:1009A000CE0101960E94CF1724E030E04CE2BE0158
:1009B0006F5F7F4FCE01C7960E945309CE0101960B
:1009C0000E943517B801CE0101960E94CF1725E08D
:1009D00030E04CE2BE016F5F7F4FCE01C1960E94B6
:1009E0005309CE0101960E943517B801CE01019638
:1009F0000E94CF1726E030E04CE2BE016F5F7F4FD0
:100A0000CE018B960E945309CE0101960E943517A4
:100A1000B801CE0101960E94CF1729E030E04CE2E8
:100A2000BE016F5F7F4FCE0185960E945309CE01B4
:100A300001960E943517CE018B960E94E01916167A
:100A400017061CF421E0209309027093E7016093DC
:100A5000E60180910902882309F462C122E030E0B6
:100A600040E050E0BE016D5B7F4FCE014F960E948B
:100A70009A1929962EAD3FAD299742E050E0BE016C
:100A80006D5B7F4FCE0149960E949A19CE014F9619
:100A90000E94F6196B017C01CE0149960E94F6195D
:100AA00020E030E040E752E40E94530F9B01AC018C
:100AB000C701B6010E94CB0E4B015C0123E030E080
:100AC00040E050E0BE01695C7F4FCE0143960E943A
:100AD0009A192BAD3CAD43E050E0BE01695C7F4FFD
:100AE000CE010D960E949A19CE0143960E94F619E6
:100AF0006B017C01CE010D960E94F61920E030E0DA
:100B000040E752E40E94530F9B01AC01C701B601BC
:100B10000E94CB0E6B017C01CE0185960E94F619D6
:100B20002B013C016DE571E0CE01CD960E9442198A
:100B3000882321F0B7FAB094B7F8B0946FE571E06C
:100B4000CE01CD960E944219882321F0F7FAF09445
:100B5000F7F8F094A50194016091280270912902A0
:100B600080912A0290912B020E944E0F882381F0DF
:100B70009092E9018092E801B092EB01A092EA0123
:100B80008092280290922902A0922A02B0922B020F
:100B9000A70196016091240270912502809126029E
:100BA000909127020E944E0F882381F0D092ED0190
:100BB000C092EC01F092EF01E092EE01C0922402AB
:100BC000D0922502E0922602F0922702A301920120
:100BD0006091200270912102809122029091230263
:100BE0000E944E0F882381F05092F1014092F00153
:100BF0007092F3016092F201409220025092210221
:100C00006092220270922302BE01675B7F4FCE0189
:100C100001960E94CF176BE571E0CE0101960E940C
:100C20002919BC0180EC92E00E94D514CE010196F6
:100C30000E943517409128025091290260912A02A2
:100C400070912B0222E0CE0107960E947518BE011A
:100C5000695F7F4FCE0101960E94CF176BE571E06F
:100C6000CE0101960E942919BC0180EC92E00E94FD
:100C7000D514CE0101960E943517CE0107960E9429
:100C800035174091240250912502609126027091FF
:100C9000270222E0CE0107960E947518BE01695F07
:100CA0007F4FCE0101960E94CF176BE571E0CE0118
:100CB00001960E942919BC0180EC92E00E94D51493
:100CC000CE0101960E943517CE0107960E94351776
:100CD00040912002509121026091220270912302E2
:100CE00022E0CE0101960E947518BE016F5F7F4F12
:100CF00080EC92E00E94E714CE0101960E94351725
:100D0000CE010D960E943517CE0143960E943517ED
:100D1000CE0149960E943517CE014F960E94351795
:100D2000BE01675B7F4FCE0101960E94CF176BE536
:100D300071E0CE0101960E942919BC0180EC92E07D
:100D40000E94D514CE0101960E943517BE016D5B3D
:100D50007F4FCE0101960E94CF1761E271E0CE0174
:100D600001960E942919BE01635C7F4F0E941619EB
:100D70006BE571E00E942919BC0180EC92E00E94B1
:100D8000D514CE0101960E943517BE01695C7F4FD4
:100D9000CE0101960E94CF1761E271E0CE0101966B
:100DA0000E942919BE016F5C7F4F0E9416196BE5E6
:100DB00071E00E942919BC0180EC92E00E94D514D8
:100DC000CE0101960E9435174091200250912102D8
:100DD000609122027091230222E0CE0101960E94CE
:100DE0007518BE016F5F7F4F80EC92E00E94E714A0
:100DF000CE0101960E943517CE0185960E943517C7
:100E0000CE018B960E943517CE01C1960E943517F0
:100E1000CE01C7960E943517CE01CD960E94351798
:100E2000CE018D5B9F4F0E943517CE01875B9F4F90
:100E3000BEC161E671E0CE0107960E94A31740E0B3
:100E400050E0BE01695F7F4FC8010E9461198111A6
:100E500018C069E671E0CE0101960E94A31740E038
:100E600050E0BE016F5F7F4FC8010E946119FF24EF
:100E7000F394811101C0F12CCE0101960E94351727
:100E800002C0FF24F394CE0107960E943517FF207D
:100E900009F48FC1B801CE0101960E94CF1721E05D
:100EA00030E04CE2BE016F5F7F4FCE0185960E941D
:100EB0005309CE0101960E943517B801CE01019663
:100EC0000E94CF1729E030E04CE2BE016F5F7F4FF8
:100ED000CE014F960E945309CE0101960E9435170C
:100EE00022E030E040E050E0BE016B5D7F4FCE017C
:100EF00001960E949A19CE0101960E94E019679608
:100F00006CAF7DAF8EAF9FAF6797CE0101960E9409
:100F1000351724E030E042E050E0BE016B5D7F4FCA
:100F2000CE0101960E949A19CE0101960E94E01905
:100F300063966CAF7DAF8EAF9FAF6397CE01019686
:100F40000E94351726E030E044E050E0BE016B5DC2
:100F50007F4FCE0101960E949A19CE0101960E9400
:100F6000E0192B013C01CE0101960E94351722E0C9
:100F700030E040E050E0BE01615E7F4FCE0101965F
:100F80000E949A19CE0101960E94E0194B015C0162
:100F9000CE0101960E94351724E030E042E050E097
:100FA000BE01615E7F4FCE0101960E949A19CE016B
:100FB00001960E94E0196B017C01CE0101960E940E
:100FC000351726E030E044E050E0BE01615E7F4F1F
:100FD000CE0101960E949A19CE0101960E94E01955
:100FE0006B966CAF7DAF8EAF9FAF6B97CE010196C6
:100FF0000E94351769960EAD1FAD69970053184FC3
:10100000A401B601C8010E94CD092090F8013090DA
:10101000F9012091090265964EAD5FAD6597240EEA
:10102000351E222301F11093FB010093FA01D092A7
:10103000FD01C092FC019092FF018092FE0190930D
:10104000070280930602309201022092000261960C
:101050002EAD3FAD61973093030220930202509270
:101060000502409204024AE0BC01CE0101960E94B2
:101070001C184AE0B401CE0107960E941C184AE0F1
:10108000B601CE010D960E941C184AE0B801CE01AF
:1010900049960E941C18BE01675E7F4FCE014396A1
:1010A0000E94CF1761E771E0CE0143960E94291993
:1010B000BE01635F7F4F0E94161961E771E00E94D5
:1010C0002919BE01695F7F4F0E94161961E271E024
:1010D0000E942919BE016F5F7F4F0E94161961E2BD
:1010E00071E00E942919BC0180EC92E00E94D514A5
:1010F000CE0143960E943517CE0149960E943517BE
:10110000CE010D960E943517CE0107960E94351725
:10111000CE0101960E9435174AE0B201CE01019638
:101120000E941C184AE061966EAD7FAD6197CE01BA
:1011300007960E941C184AE0B101CE0143960E9416
:101140001C18BE016D5E7F4FCE010D960E94CF1719
:1011500063E771E0CE010D960E942919BE01695F17
:101160007F4F0E94161963E771E00E942919BE01A2
:101170006F5F7F4F0E941619BC0180EC92E00E94C5
:10118000E714CE010D960E943517CE0143960E94BA
:101190003517CE0107960E943517CE0101960E94A1
:1011A0003517CE014F960E943517CE0185960E94C5
:1011B0003517C65ADF4F0FB6F894DEBF0FBECDBF4E
:1011C000DF91CF911F910F91FF90EF90DF90CF9023
:1011D000BF90AF909F908F907F906F905F904F9057
:1011E0003F902F900895CF93DF9300D000D000D090
:1011F000CDB7DEB70E947B0D84EE91E00E94B5036F
:101200008091BE018823B1F06FEB71E0CE010196B1
:101210000E94CF17CE0101960E946204CE01019672
:101220000E9435176FEA71E08FEB91E00E94D817AA
:101230001092BE0126960FB6F894DEBF0FBECDBF4A
:10124000DF91CF91089520E044E063E085EC91E0E8
:101250000E94C40B6FEA71E08FEB91E00C94A3172E
:101260008FEB91E00E94351785EC91E00C946B0BAD
:10127000CF93DF93D1E080EC92E00E94CB12892BD8
:1012800079F080EC92E00E94E512C82F682F8FEB76
:1012900091E00E940319CA3071F7D093BE01EBCFE1
:1012A000DF91CF9108952F923F924F925F926F926C
:1012B0007F928F929F92AF92BF92CF92DF92EF92E6
:1012C000FF920F931F93CF93DF9300D01F92CDB760
:1012D000DEB75C014B012901FB010481158101503E
:1012E0001109612C712CCC24CA94DC2C212C312CBA
:1012F000E12CF12C7B826A82061517057CF14E14D5
:101300005F042CF16A817B81C40149830E94981992
:101310002A813B812F5F3F4F4981841741F08A81A9
:101320009B818017910719F0DB82CA820CC09FEF66
:10133000E91AF90A1601EFEF2E1A3E0A6016710635
:1013400011F43B832A833901CA80DB80D3CF960115
:10135000A101B401C5010E949A1908C04E145F048E
:10136000B4F36FEA71E0C5010E94A317C5010F90A5
:101370000F900F90DF91CF911F910F91FF90EF9001
:10138000DF90CF90BF90AF909F908F907F906F90A5
:101390005F904F903F902F9008950F931F93CF939E
:1013A000DF93FB018A0121E030E06330710514F026
:1013B00020E030E0AC01421B530B9A01BA0157FF09
:1013C00002C06D5F7F4F7595679575956795E901CB
:1013D000C60FD71FC9016CE97FEF0E94F919C60F2C
:1013E000D71FC90160E971E00E94F919CE01860F8B
:1013F000971FEE0FFF1FED58FE4F20813181820FA6
:10140000931F800F911F67E070E00E94F919DF9130
:10141000CF911F910F91089520916E0230916F022C
:1014200028173907B9F490912C0280912D02981752
:1014300089F0E0912C02F0E0E25DFD4F8081209187
:101440002C0230E02F5F3F4F2F73332720932C0265
:1014500090E008958FEF9FEF08951F93CF93DF9350
:10146000DC015C962D913C915D972115310539F495
:1014700081E090E013969C938E9312973DC0519615
:10148000ED91FC91529750969C915097892F8095A1
:101490001FB75E964C915E9741FB772770F941FD2F
:1014A0006095F8944081772311F0492B01C04823BF
:1014B0004083E9012197F1F748E0508160FF02C0C5
:1014C000592B01C058235083E9012197F1F7669504
:1014D000415099F7772321F090818923808303C0BD
:1014E0008081982B90831FBF5C968D919C915D9716
:1014F0000197F1F721E030E0C901DF91CF911F9111
:101500000895089520916E0230916F0228173907CF
:1015100071F490912C0280912D02981741F0E09186
:101520002C02F0E0E25DFD4F808190E008958FEFA6
:101530009FEF089520916E0230916F0228173907AE
:1015400071F480912D0220912C0290E0805C9F4FDD
:10155000821B910960E470E00E94F919089580E00F
:1015600090E00895E0916E02F0916F02E817F9079C
:1015700069F4A389B4899C918589809589238C938A
:1015800010926F0210926E0281E0089580E008953B
:10159000CF93DF93EC018A8D9B8D892BF1F08091A5
:1015A0006E0290916F028C179D07B9F0009711F0B1
:1015B0000E94B20A8E8D8E7F8E8F10922D02109215
:1015C0002C02D0936F02C0936E02EB89FC8990814C
:1015D0008D89892B808381E001C080E0DF91CF91EC
:1015E00008951F920F920FB60F9211242F933F93DD
:1015F0004F935F936F937F938F939F93AF93BF931B
:10160000EF93FF93E0916E02F0916F02309709F42F
:1016100051C0968DA685B785858591FF04C09C91A4
:10162000892329F447C09C91892309F043C0A389E9
:10163000B4899C918589809589238C938689978923
:101640000197F1F7608D718DA685B785558538E0D6
:1016500020E0CB010197F1F7822F90E095958795D7
:10166000282F4C91452309F02068315091F7868D41
:1016700081FD209580912D0290E001968F7399272E
:1016800030912C02381749F0A0912D02B0E0A25DF4
:10169000BD4F2C9380932D0203C0868D8160868F71
:1016A000828D938D0197F1F7A389B4899C918589E7
:1016B000892B8C93FF91EF91BF91AF919F918F9167
:1016C0007F916F915F914F913F912F910F900FBE3E
:1016D0000F901F90189521E931E0FC0131832083A0
:1016E0000C94B20A1F93CF93DF93EC01162F6E8DEB
:1016F0006695617081E06827812F0E94DC1661E0A9
:10170000812F0E94A016612F70E0FB01ED5CFD4F60
:10171000E491E88BFB01E95BFD4FE491F0E0EE0F13
:10172000FF1FEB59FD4F859194919A8B898BDF9127
:10173000CF911F9108951F93CF93DF93EC01162F44
:1017400060E0812F0E94A0168E8D81FD04C061E0B3
:10175000812F0E94DC161C87612F70E0FB01ED5C7D
:10176000FD4FE491ED87FB01E95BFD4FE491F0E073
:10177000EE0FFF1FE55AFD4F859194919F878E874D
:10178000DF91CF911F9108951F93CF93DF93EC01C9
:10179000162F1B821A8288EE93E0A0E0B0E08C83C3
:1017A0009D83AE83BF8381E991E0998388831F8AFB
:1017B0001E8A198E188E1B8E1A8E1D8E1C8E8E8D73
:1017C0008E7F20FB81F98E8F642FCE010E94720BD9
:1017D000612FCE01DF91CF911F910C949B0BCF9382
:1017E000DF93EC019A01AB011B8E1A8E198E188EB5
:1017F0001F8A1E8A60E079E08DE390E00E942F1A34
:10180000F9012430310518F0C901039702C081E0C5
:1018100090E09D8F8C8F6C85663108F069C0C9019E
:10182000969587958431910510F0439702C081E029
:1018300090E09F8B8E8B369718F0C901059702C0F8
:1018400081E090E0998F888FC901880F991F280F38
:10185000391F36952795369527952D30310518F087
:101860002C50310902C021E030E03B8F2A8F90914B
:101870006800683050F021E06E3008F420E081E02C
:1018800001C0880F2A95EAF701C084E0892B809374
:1018900068008C85883038F08E3040F0863148F012
:1018A00020E030E008C02DE630E005C02BE630E057
:1018B00002C02CE630E03C8B2B8B883030F491E07A
:1018C00001C0990F8A95EAF70EC0282F30E08E30BC
:1018D00018F42850310902C02E50310991E001C09E
:1018E000990F2A95EAF79D8B8C8D9D8D0197F1F7C5
:1018F000CE01DF91CF910C94C80ACF92DF92EF9284
:10190000FF92CF93DF931F92CDB7DEB76B017C01BF
:10191000AB01BC01809170029091710229830E94F9
:10192000EF0B298120937A0281E0C8168BE4D80658
:10193000E104F1046CF08EEE92E0909375028093D6
:10194000740286ED96E0909373028093720218C041
:1019500060EC71EE84EE90E0A70196010E942F1AD0
:10196000309375022093740260EC7EE086E192E091
:10197000A70196010E942F1A3093730220937202DE
:101980000F90DF91CF91FF90EF90DF90CF9008956F
:101990004F925F926F927F92AF92BF92CF92DF92FF
:1019A000EF920F932A013B01422F202F9093710257
:1019B00080937002C301B2010E947D0CD0927F021D
:1019C000C0927E02B0927D02A0927C02E0927802E8
:1019D00061E08E2D0E94A01660E0809178020E9446
:1019E000DC1610927702109276020F91EF90DF9042
:1019F000CF90BF90AF907F906F905F904F90089581
:101A000040E852E0FA012FEF3FEF9E2F941B98170A
:101A100088F49191292798E0B9016170772736956C
:101A20002795672B21F061E0262760EA3627915041
:101A300099F7EBCF922F832F0895EF92FF921F9388
:101A4000CF93DF93182F61E0809178020E94DC161B
:101A500080E8E82E82E0F82EE701A0917002B091B4
:101A600071029C2F9E19911750F46991ED91FC9190
:101A700011970190F081E02DCD010995EECFED9108
:101A8000FC9111970284F385E02DCD010995809199
:101A90007202909173020E94311660E08091780288
:101AA000DF91CF911F91FF90EF900C94DC16209165
:101AB0007602309177022F5F3F4F30937702209369
:101AC000760290917B02911115C090917A029093C9
:101AD00080029091790290689093810280938202B3
:101AE00083E00E94000D909383028093840285E03E
:101AF0000C941D0D08950F931F93CF93DF93809146
:101B0000700290917102DC01ED91FC910480F581ED
:101B1000E02D0995892B09F434C1D0E0C0E0809113
:101B2000700290917102DC01ED91FC910480F581CD
:101B3000E02D0995892B31F180917002909171020D
:101B4000DD2341F0DC01ED91FC910680F781E02D71
:101B5000099511C0D1E0C03409F0D0E0DC01ED916D
:101B6000FC910680F781E02D0995EC2FF0E0E0581C
:101B7000FD4F8083CF5F80917402909175020E9427
:101B80003116CDCFDD2361F08091760290917702FE
:101B90009C012F5F3F4F3093770220937602F5C070
:101BA000C83008F4E2C080918002882319F01092B6
:101BB0007B0203C091E090937B02D0917A028D1753
:101BC00029F080917B02882309F4DBC00C2F10E000
:101BD0008EEF8C0F0E94000DA80140585D4FFA0156
:101BE0003297208130E0322F222731964081242BFA
:101BF0008217930709F0BCC040918102409379029B
:101C00002091820230E0322F222780918302282BFC
:101C10008091840290E0982F882750918502852B2F
:101C2000BC01620F731FC0917B02C11144C04330DD
:101C300009F041C040917E0250917F022417350780
:101C400008F04EC046175707A0F1880FC5E0C80F2F
:101C5000D093800280938202A0917C02B0917D0299
:101C600093E0422F50E046175707A8F4440F551F42
:101C7000FD01E40FF51F30814181E92FF0E0E058CC
:101C8000FD4F4083E1E0E90FF0E0E058FD4F308385
:101C90009E5F2F5FE6CF8D5F0E94000D2C2F30E0FE
:101CA00020583D4FF90132979083319680838C2FD5
:101CB00034C083E057C04630A9F0403109F051C02C
:101CC0008091860290E0095011098017910709F070
:101CD0004FC080917E0290917F022817390700F152
:101CE00082E040C040917E0250917F022417350768
:101CF000B8F7220F331FE0917C02F0917D02E20FD2
:101D0000F31F9183808386E00E94000D90938602EA
:101D100080938702C11135C088E00E941D0D31C03B
:101D20008617970730F240917C0250917D0237E090
:101D3000822F90E08617970730F7A32FB0E0880F27
:101D4000991FFA01E80FF91FA058BD4F11968C9109
:101D50001197AC9190E09A2B918380833E5F2F5F27
:101D6000E7CF81E00E94570D0CC0C150C73048F446
:101D700080917602909177020196909377028093FA
:101D800076028091760290917702DF91CF911F9138
:101D90000F9108955058BB27AA270E94E20E0C9479
:101DA00095100E94871038F00E948E1020F039F4B0
:101DB0009F3F19F426F40C9484100EF4E095E7FB91
:101DC0000C945510E92F0E94A61058F3BA17620719
:101DD00073078407950720F079F4A6F50C94E010BA
:101DE0000EF4E0950B2EBA2FA02D0B01B901900136
:101DF0000C01CA01A0011124FF27591B99F0593F7A
:101E000050F4503E68F11A16F040A22F232F342FC1
:101E10004427585FF3CF469537952795A795F0400F
:101E20005395C9F77EF41F16BA0B620B730B840B24
:101E3000BAF09150A1F0FF0FBB1F661F771F881FDC
:101E4000C2F70EC0BA0F621F731F841F48F4879534
:101E500077956795B795F7959E3F08F0B0CF939526
:101E6000880F08F09927EE0F9795879508950E949F
:101E7000C81090F09F3748F4911116F40C94E110BB
:101E800060E070E080E89FE3089526F01B16611D76
:101E9000711D811D0C945B100C9476100E94311002
:101EA00008F481E008950E94670F0C9495100E9439
:101EB0008E1058F00E94871040F029F45F3F29F0FF
:101EC0000C94551051110C94E1100C9484100E9444
:101ED000A61068F39923B1F3552391F3951B550B85
:101EE000BB27AA2762177307840738F09F5F5F4FED
:101EF000220F331F441FAA1FA9F335D00E2E3AF02C
:101F0000E0E832D091505040E695001CCAF72BD043
:101F1000FE2F29D0660F771F881FBB1F2617370794
:101F20004807AB07B0E809F0BB0B802DBF01FF27C6
:101F300093585F4F3AF09E3F510578F00C9455103E
:101F40000C94E1105F3FE4F3983ED4F386957795C7
:101F50006795B795F7959F5FC9F7880F911D96957F
:101F6000879597F90895E1E0660F771F881FBB1FDB
:101F7000621773078407BA0720F0621B730B840B88
:101F8000BA0BEE1F88F7E09508950E94AE1088F016
:101F90009F5798F0B92F9927B751B0F0E1F0660F2D
:101FA000771F881F991F1AF0BA95C9F714C0B1306E
:101FB00091F00E94E010B1E008950C94E010672FBA
:101FC000782F8827B85F39F0B93FCCF3869577959D
:101FD0006795B395D9F73EF4909580957095619586
:101FE0007F4F8F4F9F4F0895E89409C097FB3EF4B1
:101FF00090958095709561957F4F8F4F9F4F992356
:10200000A9F0F92F96E9BB279395F69587957795D3
:102010006795B795F111F8CFFAF4BB0F11F460FF93
:102020001BC06F5F7F4F8F4F9F4F16C0882311F0EB
:1020300096E911C0772321F09EE8872F762F05C0FF
:10204000662371F096E8862F70E060E02AF09A959A
:10205000660F771F881FDAF7880F9695879597F98F
:102060000895990F0008550FAA0BE0E8FEEF161629
:102070001706E807F907C0F012161306E407F5077C
:1020800098F0621B730B840B950B39F40A2661F0F0
:10209000232B242B252B21F408950A2609F4A14093
:1020A000A6958FEF811D811D089597F99F6780E8A0
:1020B00070E060E00895882371F4772321F0985050
:1020C000872B762F07C0662311F499270DC09051F6
:1020D000862B70E060E02AF09A95660F771F881FC4
:1020E000DAF7880F9695879597F908959F3F31F015
:1020F000915020F4879577956795B795880F911D36
:102100009695879597F908959FEF80EC08950024A0
:102110000A941616170618060906089500240A944C
:1021200012161306140605060895092E0394000CD2
:1021300011F4882352F0BB0F40F4BF2B11F460FF61
:1021400004C06F5F7F4F8F4F9F4F089557FD90588A
:10215000440F551F59F05F3F71F04795880F97FB6B
:10216000991F61F09F3F79F0879508951216130625
:102170001406551FF2CF4695F1DF08C01616170654
:102180001806991FF1CF8695710561050894089589
:102190000E94AE10A0F0BEE7B91788F4BB279F38A5
:1021A00060F41616B11D672F782F8827985FF7CF38
:1021B000869577956795B11D93959639C8F30895DF
:1021C000E894BB2766277727CB0197F908950E94EB
:1021D000FA100C9495100E94871038F00E948E100F
:1021E00020F0952311F00C9455100C9484101124B8
:1021F0000C94E1100E94A61070F3959FC1F3950F07
:1022000050E0551F629FF001729FBB27F00DB11D7A
:10221000639FAA27F00DB11DAA1F649F6627B00D0A
:10222000A11D661F829F2227B00DA11D621F739FF3
:10223000B00DA11D621F839FA00D611D221F749F01
:102240003327A00D611D231F849F600D211D822F48
:10225000762F6A2F11249F5750409AF0F1F088236F
:102260004AF0EE0FFF1FBB1F661F771F881F91509C
:102270005040A9F79E3F510580F00C9455100C94E6
:10228000E1105F3FE4F3983ED4F386957795679528
:10229000B795F795E7959F5FC1F7FE2B880F911DC6
:1022A0009695879597F90895FA01EE0FFF1F3096DE
:1022B00021053105A1F16115710561F48038BFE395
:1022C0009B0749F168949038810561F08038BFEF31
:1022D0009B0741F099234AF5FF3FE10531052105B0
:1022E00019F1E8940894E795D901AA2329F4AB2FB2
:1022F000BE2FF85FD0F310C0FF5F70F4A695E0F733
:10230000F73950F019F0FF3A38F49F779F930DD0CA
:102310000F9007FC9058089546F00C94841060E0EC
:1023200070E080E89FE308954FE79F775F934F93B6
:102330003F932F930E944F122F913F914F915F91A6
:102340000E94E7100C94AC1129F416F00C9455106F
:102350000C94E0100C9484100E94AE10A8F39638F0
:10236000A0F707F80F92E8942BE33AEA48EB5FE70F
:102370000E94FD100F920F920F924DB75EB70F9211
:102380000E949712E8E6F0E00E94DE114F915F9103
:10239000EF91FF91E595EE1FFF1F49F0FE57E068B2
:1023A0004427EE0F441FFA95E1F74195550B0E9423
:1023B00011120F9007FE0C9405120895DF93CF932E
:1023C0001F930F93FF92EF92DF927B018C01689431
:1023D00006C0DA2EEF010E94FA10FE01E894A591E2
:1023E0002591359145915591A6F3EF010E94E20E9A
:1023F000FE019701A801DA9469F7DF90EF90FF9052
:102400000F911F91CF91DF9108959B01AC0160E086
:1024100070E080E89FE30C94530F0C9455100C94DB
:1024200076100E94AE10D8F39923C9F3940F511D72
:10243000A3F39150504094F059F0882332F0660F86
:10244000771F881F91505040C1F79E3F51052CF7D0
:10245000880F911D9695879597F908955F3FACF089
:10246000983E9CF0BB27869577956795B79508F4BD
:10247000B1609395C1F7BB0F58F711F460FFE8CF37
:102480006F5F7F4F8F4F9F4FE3CF0C94E11016F09B
:102490000C9476100C94841068940C9455100E943F
:1024A000AE10A8F39923C1F3AEF3DF93CF931F933C
:1024B0000F93FF92C92FDD2788232AF02197660FFB
:1024C000771F881FDAF720E030E040E85FEB9FE3FA
:1024D000883920F0803E38F021968F770E94CB0E0D
:1024E000E0E9F0E004C00E94CB0EEDEBF0E00E94CA
:1024F000DE118B01BE01EC01FB2E6F577109759542
:10250000771F880B990B0E94F60F28E132E741E311
:102510005FE30E94FA10AF2D9801AE01FF900F917A
:102520001F91CF91DF910E94E20E0C949510FA0159
:10253000DC01AA0FBB1F9B01AC01BF5728F4222767
:1025400033274427507820C0B75190F4AB2F002494
:10255000469537952795011CA395D2F3002071F07D
:10256000220F331F441FB395DAF30ED00C94CA0E1A
:1025700061307105A0E88A07B94630F49B01AC01CF
:102580006627772788279078309621F0208331833B
:10259000428353830895FC01918D228D892F90E011
:1025A000805C9F4F821B91098F7399270895FC01CE
:1025B000918D828D981731F0828DE80FF11D858DF8
:1025C00090E008958FEF9FEF0895FC01918D828D2B
:1025D000981761F0828DDF01A80FB11D5D968C9177
:1025E000928D9F5F9F73928F90E008958FEF9FEF82
:1025F00008958EE494E1892B49F088E399E0892BD2
:1026000029F00E944E1481110C9438090895FC01A0
:10261000848DDF01A80FB11DA35ABF4F2C91848D6B
:1026200090E001968F739927848FA689B7892C93A0
:10263000A089B1898C9180648C93938D848D98133B
:1026400006C00288F389E02D80818F7D8083089504
:10265000CF93DF93EC01888D8823C9F0EA89FB8949
:10266000808185FD05C0A889B9898C9186FD0FC040
:102670000FB607FCF5CF808185FFF2CFA889B98915
:102680008C9185FFEDCFCE010E940713E7CFDF913C
:10269000CF910895EF92FF920F931F93CF93DF9303
:1026A000EC0181E0888F9B8D8C8D981305C0E889A3
:1026B000F989808185FD24C0F62E0B8D10E00F5F17
:1026C0001F4F0F731127E02E8C8DE8120CC00FB630
:1026D00007FCFACFE889F989808185FFF5CFCE0123
:1026E0000E940713F1CF8B8DFE01E80FF11DE35A15
:1026F000FF4FF0820B8FEA89FB898081806207C0DF
:10270000EE89FF896083E889F9898081806480830C
:1027100081E090E0DF91CF911F910F91FF90EF90BA
:102720000895CF92DF92EF92FF921F93CF93DF93A2
:10273000EC016A017B01122FE889F98982E080832C
:102740004115514E61057105B1F060E079E08DE30E
:1027500090E0A70196010E940D1ADA01C9010197C4
:10276000A109B109B695A79597958795AC01411533
:1027700080E15807A8F0E889F989108260E874E8D8
:102780008EE190E0A70196010E940D1ABA01A901FD
:10279000415051096109710976956795579547959B
:1027A000EC85FD855083EE85FF854083188EEC898E
:1027B000FD891083EA89FB89808180618083EA89B1
:1027C000FB89808188608083EA89FB8980818068B9
:1027D0008083EA89FB8980818F7D8083DF91CF911F
:1027E0001F91FF90EF90DF90CF9008951F920F926E
:1027F0000FB60F9211242F938F939F93EF93FF9314
:10280000E091D002F091D1028081E091D602F09166
:10281000D70282FD12C090818091D9028F5F8F73A1
:102820002091DA02821751F0E091D902F0E0E054F1
:10283000FD4F958F8093D90201C08081FF91EF9168
:102840009F918F912F910F900FBE0F901F90189511
:102850001F920F920FB60F9211242F933F934F9315
:102860005F936F937F938F939F93AF93BF93EF93F8
:10287000FF9380EC92E00E940713FF91EF91BF91CC
:10288000AF919F918F917F916F915F914F913F9108
:102890002F910F900FBE0F901F90189580EC92E033
:1028A0000E94CB1221E0892B09F420E0822F0895A9
:1028B000E0ECF2E01382128288EE93E0A0E0B0E058
:1028C00084839583A683B78381EA91E09183808393
:1028D00085EC90E09587848784EC90E097878687E5
:1028E00080EC90E0918B808B81EC90E0938B828BDD
:1028F00082EC90E0958B848B86EC90E0978B868BB6
:10290000118E128E138E148E089508950E943C1617
:102910000E9485140E94F703C9EFD2E10E94F308D8
:102920002097E1F30E94F912F9CFCF92DF92EF9254
:10293000FF920F931F93CF93DF936C017A018B016A
:10294000C0E0D0E0CE15DF0589F0D8016D918D0192
:10295000D601ED91FC910190F081E02DC601099521
:10296000892B11F47E0102C02196ECCFC701DF91C3
:10297000CF911F910F91FF90EF90DF90CF9008952E
:102980006115710579F0FB0101900020E9F731979D
:10299000AF01461B570BDC01ED91FC910280F381E6
:1029A000E02D099480E090E00895DC01ED91FC9128
:1029B000DB0114964D915C9115976D917C9102808D
:1029C000F381E02D09946DEA71E00C94C0140F932B
:1029D0001F93CF93DF93EC010E94D5148C01CE019D
:1029E0000E94E314800F911FDF91CF911F910F91EF
:1029F00008950F931F93CF93DF93EC010E94C014AF
:102A00008C01CE010E94E314800F911FDF91CF91C2
:102A10001F910F91089508958230E8F4E82FF0E0B7
:102A2000EE0FFF1FE65FFE4F71836083813041F040
:102A3000809169008C7F482B40936900E89A089543
:102A400080916900440F551F440F551F837F482B09
:102A500040936900E99A08951F920F920FB60F9262
:102A600011242F933F934F935F936F937F938F9393
:102A70009F93AF93BF93EF93FF93E0910A01F0917F
:102A80000B010995FF91EF91BF91AF919F918F91AC
:102A90007F916F915F914F913F912F910F900FBE5A
:102AA0000F901F9018951F920F920FB60F9211243E
:102AB0002F933F934F935F936F937F938F939F9346
:102AC000AF93BF93EF93FF93E0910C01F0910D0151
:102AD0000995FF91EF91BF91AF919F918F917F9158
:102AE0006F915F914F913F912F910F900FBE0F907B
:102AF0001F9018951F920F920FB60F9211242F93CB
:102B00003F938F939F93AF93BF9380915E03909178
:102B10005F03A0916003B091610330915D0323E0F6
:102B2000230F2D3720F40196A11DB11D05C026E805
:102B3000230F0296A11DB11D20935D0380935E03B8
:102B400090935F03A0936003B0936103809162034D
:102B500090916303A0916403B09165030196A11D58
:102B6000B11D8093620390936303A0936403B093B9
:102B70006503BF91AF919F918F913F912F910F90DE
:102B80000FBE0F901F9018952FB7F89460915E03B9
:102B900070915F0380916003909161032FBF08954E
:102BA0003FB7F8948091620390916303A09164030E
:102BB000B091650326B5A89B05C02F3F19F001967B
:102BC000A11DB11D3FBFBA2FA92F982F8827820FB3
:102BD000911DA11DB11DBC01CD0142E0660F771F03
:102BE000881F991F4A95D1F708958F929F92AF92AF
:102BF000BF92CF92DF92EF92FF926B017C010E9415
:102C0000D0154B015C01C114D104E104F10401F1C0
:102C10000E94F8190E94D015DC01CB01881999098E
:102C2000AA09BB09883E9340A105B10560F321E0E4
:102C3000C21AD108E108F10888EE880E83E0981ED8
:102C4000A11CB11CC114D104E104F10419F7DBCFBC
:102C5000FF90EF90DF90CF90BF90AF909F908F90BC
:102C600008958230910538F0880F991F880F991FB9
:102C700005970197F1F70895789484B5826084BD33
:102C800084B5816084BD85B5826085BD85B5816070
:102C900085BDEEE6F0E0808181608083E1E8F0E0D0
:102CA0001082808182608083808181608083E0E8FF
:102CB000F0E0808181608083E1EBF0E080818460DE
:102CC0008083E0EBF0E0808181608083EAE7F0E0E0
:102CD0008081846080838081826080838081816044
:102CE00080838081806880831092C1000895833042
:102CF00081F028F4813099F08230A1F00895873076
:102D0000A9F08830B9F08430D1F4809180008F7DB3
:102D100003C0809180008F7780938000089584B5F0
:102D20008F7702C084B58F7D84BD08958091B000F7
:102D30008F7703C08091B0008F7D8093B00008959D
:102D4000CF93DF9390E0FC01ED5CFD4F2491FC01FB
:102D5000E95BFD4F8491882361F190E0880F991F12
:102D6000FC01E159FD4FC591D491FC01EB59FD4F98
:102D7000A591B491611109C09FB7F89488812095FD
:102D800082238883EC912E230BC0623061F49FB7BD
:102D9000F8943881822F809583238883EC912E2BA1
:102DA0002C939FBF06C08FB7F894E8812E2B288301
:102DB0008FBFDF91CF9108951F93CF93DF93282F7B
:102DC00030E0F901E15EFD4F8491F901ED5CFD4FCA
:102DD000D491F901E95BFD4FC491CC23C9F0162FC2
:102DE00081110E947716EC2FF0E0EE0FFF1FEB59D8
:102DF000FD4FA591B4918FB7F894111105C09C9126
:102E0000ED2FE095E92302C0EC91ED2BEC938FBF01
:102E1000DF91CF911F910895CF93DF93282F30E05A
:102E2000F901E15EFD4F8491F901ED5CFD4FD49114
:102E3000F901E95BFD4FC491CC2391F081110E940F
:102E40007716EC2FF0E0EE0FFF1FE55AFD4FA5912E
:102E5000B491EC91ED2381E090E021F480E002C098
:102E600080E090E0DF91CF910895FC018081918115
:102E70000C941D1BCF93DF93EC01888199810097FF
:102E800011F00E941D1B198218821D821C821B8258
:102E90001A82DF91CF9108950F931F93CF93DF9301
:102EA000EC018B016F5F7F4F888199810E94B51B78
:102EB000009731F0998388831B830A8381E001C0E6
:102EC00080E0DF91CF911F910F910895CF93DF9311
:102ED000EC0188819981892B29F08A819B81861751
:102EE000970760F4CE010E944C17882341F08C8133
:102EF0009D81892B19F4E881F981108281E0DF91AD
:102F0000CF910895EF92FF920F931F93CF93DF938A
:102F1000EC017B018A01BA010E946617811104C08D
:102F2000CE010E943A1707C01D830C83B701888128
:102F300099810E94C51CCE01DF91CF911F910F9105
:102F4000FF90EF900895FC0111821082138212828B
:102F5000158214826115710551F0FB01019000206A
:102F6000E9F73197AF01461B570B0C948217089570
:102F7000CF93DF93EC01FB018617970761F0608127
:102F800071816115710529F0448155810E94821774
:102F900002C00E943A17CE01DF91CF910895FC0143
:102FA0001182108213821282158214820C94B81737
:102FB000CF93DF93EC016115710559F0FB0101908E
:102FC0000020E9F73197AF01461B570B0E9482178B
:102FD00002C00E943A17CE01DF91CF9108950F935E
:102FE0001F93CF93DF93CDB7DEB729970FB6F89431
:102FF000DEBF0FBECDBF8C01862FF801118210827B
:10300000138212821582148250E0BE016F5F7F4FDF
:1030100090E00E94321DBE016F5F7F4FC8010E9489
:10302000D81729960FB6F894DEBF0FBECDBFDF913B
:10303000CF911F910F9108950F931F93CF93DF931B
:10304000CDB7DEB762970FB6F894DEBF0FBECDBF27
:103050008C01CB01F8011182108213821282158239
:10306000148250E0BE016F5F7F4F0E94DA1CBE01E8
:103070006F5F7F4FC8010E94D81762960FB6F89411
:10308000DEBF0FBECDBFDF91CF911F910F9108958D
:103090000F931F93CF93DF93CDB7DEB7A1970FB6F2
:1030A000F894DEBF0FBECDBF8C01CB01BA01F80191
:1030B00011821082138212821582148230E0AE01D6
:1030C0004F5F5F4F0E94051DBE016F5F7F4FC801BC
:1030D0000E94D817A1960FB6F894DEBF0FBECDBFE1
:1030E000DF91CF911F910F910895EF92FF920F936F
:1030F0001F93CF93DF93CDB7DEB7A1970FB6F894A8
:10310000DEBF0FBECDBF7C01CB01BA01F70111823A
:103110001082138212821582148242E0420F8E01C5
:103120000F5F1F4F0E94681ABC01C7010E94D81789
:10313000A1960FB6F894DEBF0FBECDBFDF91CF9141
:103140001F910F91FF90EF900895EF92FF920F93D0
:103150001F93CF93DF93CDB7DEB7A1970FB6F89447
:10316000DEBF0FBECDBF7C01CB01BA01F7011182DA
:103170001082138212821582148242E0420F8E0165
:103180000F5F1F4F0E94681ABC01C7010E94D81729
:10319000A1960FB6F894DEBF0FBECDBFDF91CF91E1
:1031A0001F910F91FF90EF900895EF92FF920F9370
:1031B0001F93CF93DF93FC01248135816115710545
:1031C00011F480E019C041155105A9F07B01EC0113
:1031D0008A01020F131FB8010E946617882389F322
:1031E000288139818C819D81B701820F931F0E94B4
:1031F000C51C1D830C8381E0DF91CF911F910F913E
:10320000FF90EF900895CF93DF9300D0CDB7DEB756
:1032100069831A8241E050E0BE016F5F7F4F0E94D8
:10322000D5180F900F90DF91CF910895CF93DF9332
:10323000EC01FB0144815581608171810E94D518A8
:10324000811103C0CE010E943A17CE01DF91CF91C8
:103250000895CF93DF93EC016115710561F0FB01D7
:1032600001900020E9F73197AF01461B570B0E94F0
:10327000D518811103C0CE010E943A17CE01DF910B
:10328000CF910895FC0124813581232B31F421E075
:1032900061157105A1F0FB0108C0FC0180819181DD
:1032A0006115710531F421E0FC018081882339F03A
:1032B00005C00E94BC1C21E0892B09F020E0822F70
:1032C0000895DB011496ED91FC911597DC0114969D
:1032D0002D913C9115972E1B3F0B24173507A0F01D
:1032E0002D913C912115310579F0DB016D917C9197
:1032F0006115710549F0CA01AF01820F931F0E9449
:10330000CC1C21E0892B09F020E0822F0895FC01DC
:10331000248135816217730748F480819181009779
:1033200029F0FC01E60FF71F8081089580E00895E1
:103330000C948719BF92CF92DF92EF92FF920F9376
:103340001F93CF93DF937C016B018A01E90124175E
:10335000350720F4812F8901C42FD82F6FEA71E03F
:10336000C7010E94A317D60114968D919C911597C1
:1033700008171907D0F48C179D0708F4EC01D60143
:10338000ED91FC911197EC0FFD1FB08010824D91D3
:103390005C91BA01600F711FC7010E94D817D60156
:1033A000ED91FC91EC0FFD1FB082C701DF91CF9131
:1033B0001F910F91FF90EF90DF90CF90BF900895F5
:1033C000FC0180819181009711F00C94831C60E0D6
:1033D00070E0CB010895FC0180819181009711F08C
:1033E0000C947F1C60E070E0CB0108950C94EB1905
:1033F000089597FB072E16F4009407D077FD09D0A7
:103400000E944E1A07FC05D03EF4909581959F4F7F
:103410000895709561957F4F0895A1E21A2EAA1B19
:10342000BB1BFD010DC0AA1FBB1FEE1FFF1FA21774
:10343000B307E407F50720F0A21BB30BE40BF50B71
:10344000661F771F881F991F1A9469F760957095FA
:10345000809590959B01AC01BD01CF010895052E8B
:1034600097FB1EF400940E94461A57FD07D00E9455
:103470000D1A07FC03D04EF40C94461A5095409553
:10348000309521953F4F4F4F5F4F08959095809510
:10349000709561957F4F8F4F9F4F0895AA1BBB1B5F
:1034A00051E107C0AA1FBB1FA617B70710F0A61B44
:1034B000B70B881F991F5A95A9F780959095BC0165
:1034C000CD010895EE0FFF1F0590F491E02D0994B2
:1034D000EF920F931F93CF93DF93E80147FD02C054
:1034E00034E001C034E1E42F440FFF0BF7FF03C0C9
:1034F000F195E195F109E32E022F2E2FAE010E94E6
:10350000571DCE01DF91CF911F910F91EF9008953C
:10351000CF93DF938230910510F482E090E0E09148
:103520006803F091690320E030E0C0E0D0E030971C
:1035300011F14081518148175907C0F048175907C8
:1035400061F482819381209719F09B838A832BC039
:10355000909369038093680326C02115310519F003
:103560004217530718F49A01BE01DF01EF010280F0
:10357000F381E02DDCCF2115310509F1281B390B32
:103580002430310590F412968D919C91139761151A
:10359000710521F0FB019383828304C0909369033A
:1035A00080936803FD01329644C0FD01E20FF31FD2
:1035B00081939193225031092D933C933AC02091ED
:1035C000660330916703232B41F42091020130916F
:1035D000030130936703209366032091000130912B
:1035E00001012115310541F42DB73EB74091040189
:1035F00050910501241B350BE0916603F0916703A0
:10360000E217F307A0F42E1B3F0B2817390778F0B9
:10361000AC014E5F5F4F2417350748F04E0F5F1F18
:1036200050936703409366038193919302C0E0E057
:10363000F0E0CF01DF91CF9108950F931F93CF93C7
:10364000DF93009709F48CC0FC0132971382128239
:1036500000916803109169030115110581F420811F
:103660003181820F931F20916603309167032817E1
:10367000390779F5F0936703E093660371C0D801C9
:1036800040E050E0AE17BF0750F412962D913C91E8
:103690001397AD012115310509F1D901F3CF9D0132
:1036A000DA013383228360817181860F971F82172D
:1036B000930769F4EC0128813981260F371F2E5FAB
:1036C0003F4F318320838A819B8193838283452B63
:1036D00029F4F0936903E093680342C01396FC93C6
:1036E000EE931297ED01499159919E01240F351FD8
:1036F000E217F30771F480819181840F951F029680
:1037000011969C938E938281938113969C938E93B2
:103710001297E0E0F0E0D80112968D919C911397FA
:10372000009719F0F8018C01F6CF8D919C919801CA
:103730002E5F3F4F820F931F2091660330916703E6
:103740002817390769F4309729F410926903109209
:10375000680302C01382128210936703009366030A
:10376000DF91CF911F910F910895A0E0B0E0EBEBB6
:10377000FBE10C945421EC01009721F4CB010E9451
:10378000881AB8C0FC01E60FF71F9C0122503109CE
:10379000E217F30708F4ACC0D9010D911C91119701
:1037A00006171707B0F00530110508F49FC0C801CF
:1037B00004978617970708F499C002501109061B51
:1037C000170B019311936D937C93CF010E941D1BE6
:1037D0008DC05B01A01AB10A4C01800E911EA09110
:1037E0006803B091690340E050E0E12CF12C1097A0
:1037F00009F44AC0A815B905D1F56D907C901197D0
:10380000630182E0C80ED11CCA14DB0480F1A3015D
:103810004A195B096A0182E0C80ED11C1296BC905D
:1038200012971396AC91B5E0CB16D10440F0B2825A
:10383000A38351834083D9016D937C930AC00E5FAB
:103840001F4FC301800F911FF90191838083EB2DDE
:10385000FA2FE114F10431F0D7011396FC93EE93A3
:10386000129744C0F0936903E09368033FC08D91C1
:103870009C9111974817590708F4AC017D011296E5
:103880000D90BC91A02DB3CF8091660390916703FA
:1038900088159905E1F446175707C8F4809100018F
:1038A00090910101009741F48DB79EB740910401BA
:1038B00050910501841B950BE817F907C8F4F093A4
:1038C0006703E0936603F901718360830FC0CB0146
:1038D0000E94881A7C01009759F0A801BE010E943D
:1038E000B31CCE010E941D1BC70104C0CE0102C043
:1038F00080E090E0CDB7DEB7EEE00C947021662753
:1039000077270C94E51E1F93FC0199278827BC019B
:10391000E89411911032E9F3193010F01E30C8F319
:103920001B3251F01D3249F4689406C00E94F01C0D
:10393000610F711D811D911D119110531A30B0F34B
:103940003EF490958095709561957F4F8F4F9F4F76
:103950001F91089591110C941A21803219F0895009
:103960008550C8F70895FB01DC0102C001900D925B
:1039700041505040D8F70895FB01DC018D91019032
:1039800080190110D9F3990B0895FB01DC01019016
:103990000D920020E1F70895FB01DC0141505040F9
:1039A00030F08D910190801919F40020B9F7881B2F
:1039B000990B08954532510520F4423010F00C94D3
:1039C000E51CFB011082CB010895BB274A3031F47E
:1039D000992322F4BDE2909581959F4F0C943E1D52
:1039E000592F482F372F262F660F771F881F991FB3
:1039F000660F771F881F991F620F731F841F951F03
:103A0000660F771F881F991F08952532310520F40E
:103A1000223010F00C94101DFA011082CA01089592
:103A2000BB27FA01A62F6217710581059105330B9B
:103A300030FB66F0AA27660F771F881F991FAA1F01
:103A4000A21710F0A21B63953850A9F7A05DAA3306
:103A500008F0A95DA19336F7B111B1931082CA01A4
:103A60000C9435214532510520F4423010F00C946D
:103A70003D1DFB011082CB010895BB27FB0155279B
:103A8000AA27880F991FAA1FA41710F0A41B8395BB
:103A90005051B9F7A05DAA3308F0A95DA193009732
:103AA00079F7B111B1931192CB010C9435214F925A
:103AB0005F926F927F929F92AF92BF92CF92DF926E
:103AC000EF92FF920F931F93CF93DF93CDB7DEB7A3
:103AD00029970FB6F894DEBF0FBECDBF6A01122F33
:103AE000B02E2BE3201720F0FF24F394F00E02C039
:103AF000BCE3FB2E0F2D27E0AE014F5F5F4F0E940E
:103B00004220AC018981982F9970913031F0E1FC0D
:103B100006C0E0FE06C090E205C09DE203C09BE245
:103B200001C090E0EE2DE07183FF3CC0911102C016
:103B300083E001C084E0811718F4212F281B01C005
:103B400020E0E1110BC0F601822F30E2882319F04A
:103B500031938150FBCFC20ED11C20E0992329F074
:103B6000D6019C93F60131966F01C6010396E2FEE1
:103B70000AC03EE4D6013C9341E411964C93119760
:103B800012963C9306C03EE6F601308341E641833F
:103B90003283FC01322F40E2332309F442C04193C7
:103BA0003150FACF82FF44C0911102C083E001C0BE
:103BB00084E0811718F4212F281B01C020E0E111B7
:103BC0000BC0F601822F30E2882319F03193815027
:103BD000FBCFC20ED11C20E0992329F0D6019C9383
:103BE000F60131966F01C6010396E2FE0BC039E47F
:103BF000D6013C933EE411963C93119736E412961D
:103C00003C9307C039E6F60130833EE6318336E661
:103C10003283FC01322F40E2332319F041933150BB
:103C2000FBCFFC01E20FF11D10828EEF9FEFB7C0BA
:103C3000F1E0911101C0F0E06F2F70E0141615064D
:103C400024F49A012F5F3F4F02C021E030E0260F9D
:103C5000371FBB2029F06B2D70E06F5F7F4F02C0D4
:103C600060E070E0260F371F612F70E026173707DE
:103C70001CF4121B212F01C020E03E2D387159F495
:103C8000D601322F60E2332319F06D933150FBCF10
:103C9000C20ED11C20E0FF2331F0D6019C93B60167
:103CA0006F5F7F4F6B01E1110BC0F601922F30E384
:103CB000992319F031939150FBCFC20ED11C20E013
:103CC0009F2D940F3A81782F7071A72E84FF03C027
:103CD000313309F49150191624F4993018F098E012
:103CE00001C091E0E42F852F57FF02C0E0E080E0A3
:103CF0006E2F782FE0E0F0E0AEE29A2E3A01691ADA
:103D000071082A01461A570A0B2D10E011950195EA
:103D100011096F3F8FEF780729F4D6019C92C601F5
:103D200001966C014617570784F0661677066CF407
:103D30007F01E40CF51CA1E0B0E0AC0FBD1FEA0E62
:103D4000FB1ED7011196BC9002C090E3B92E6150C2
:103D500071093196C60101967C016017710724F044
:103D6000D601BC926C01D5CF6417750741F4363388
:103D700020F4353321F4A11002C081E3B82EF601FE
:103D8000B082F701822F90E2882319F0919381503D
:103D9000FBCFF701E20FF11D108280E090E0299641
:103DA0000FB6F894DEBF0FBECDBFDF91CF911F914C
:103DB0000F91FF90EF90DF90CF90BF90AF909F90CA
:103DC0007F906F905F904F900895A0E0B0E0EBEE91
:103DD000FEE10C945421EC017B016115710519F091
:103DE000DB018D939C938E010F5F1F4F7880872D91
:103DF00090E00E94AA1C892B11F0E801F4CFBDE2EB
:103E00007B1205C00F5F1F4F7980C1E008C0EBE255
:103E10007E1204C08E010E5F1F4F7980C0E06801E2
:103E2000F1E0CF1AD10843E050E062EF70E0C60144
:103E30000E941D21892BF1F4680122E0C20ED11CE1
:103E400045E050E06DEE70E0C6010E941D21892B17
:103E500021F4680187E0C80ED11CE114F10419F0C7
:103E6000D701CD92DC92C111FFC060E070E080E824
:103E70009FE703C143E050E06AEE70E0C6010E9494
:103E80001D21892B51F4E114F10409F4F2C00E5FF5
:103E90001F4FF70111830083ECC0680160E070E000
:103EA000CB0100E010E0F601D0EDD70DDA3058F587
:103EB0002C2F2260622E2C2F2870C2FF05C02111EA
:103EC00028C00F5F1F4F25C0222311F00150110998
:103ED000A5E0B0E09B01AC010E9445214B015C01D3
:103EE000880C991CAA1CBB1CC501B4016D0F711D67
:103EF000811D911D6839A9E97A078A07A9E19A0706
:103F000040F0C66005C0DE3F51F4C3FD44C0C86048
:103F10006C2EBFEFCB1ADB0A7080C62DC4CF2D2FBD
:103F20002F7D2531C1F540814D3211F4C06106C0AD
:103F30004B3221F0319621E030E006C03296D601B6
:103F400011964C9122E030E0A0EDA40FAA3018F0B9
:103F5000E21BF30B20C040E050E04038BCE05B07C0
:103F60005CF49A01220F331F220F331F420F531F9D
:103F7000440F551F4A0F511D3196DF0111972C91A7
:103F8000A0EDA20FAA3048F3C4FF03C0519541959C
:103F90005109040F151FC1FF07C0E114F10421F0FE
:103FA0003197D701ED93FC930E94F40FC370C33097
:103FB00019F06B017C0106C06B017C01F7FAF094EB
:103FC000F7F8F09420E030E0A901C701B6010E94A3
:103FD0004E0F882309F445C017FF06C011950195BF
:103FE0001109C9E0D1E002C0C1E2D1E05E01B8E14F
:103FF000AB1AB1084601BE2DAF2D90E2E92EF12C8F
:104000000E151F0584F0FE012591359145915491BF
:10401000B4018B2F9A2F0E94E7104B01B82FA92FC4
:104020000E191F09EDCF2497F594E794CA15DB0507
:1040300039F76401EB2EFA2E8E2D880F8F2D881FF5
:104040008F3F49F020E030E0A901C701B6010E948E
:104050004E0F811106C082E290E090936B03809333
:104060006A03C701B60109C060E070E080E89FEF15
:1040700004C060E070E080EC9FE7CDB7DEB7EEE013
:104080000C947021283008F027E03327DA01990FCB
:10409000311D87FD916000966105710539F432602C
:1040A0002E5F3D9330E32A95E1F708959F3F30F06E
:1040B00080387105610509F03C5F3C5F3D939130AC
:1040C00008F08068911DDF93CF931F930F93FF92A9
:1040D000EF92192F987F9695E92F96959695E90F6F
:1040E000FF27E158FE4F99273327EE24FF24A7012D
:1040F000E70105900894079428F4360FE71EF81E90
:10410000491F511D660F771F881F991F0694A1F73D
:104110000590079428F4E70EF81E491F561FC11D8D
:10412000770F881F991F661F0694A1F705900794C3
:1041300028F4F80E491F561FC71FD11D880F991F5D
:10414000661F771F0694A1F70590079420F4490F86
:10415000561FC71FD81F990F661F771F881F069409
:10416000A9F784911095177041F0D695C79557958A
:104170004795F794E7941A95C1F7E5E2F1E0689462
:104180001590159135916591959105907FE2739504
:10419000E118F10A430B560BC90BD009C0F7E10C2B
:1041A000F11E431F561FC91FD01D7EF4703311F43A
:1041B0008A95E6CFE894015030F0080F0AF4002702
:1041C000021708F4202F2395022F7A3328F079E381
:1041D0007D932A95E9F710C07D932A9589F6069478
:1041E00097956795379517951794E118F10A430B42
:1041F000560BC90BD00998F023957E9173957A33AD
:1042000008F070E37C932013B8F77E9170617D9382
:1042100030F0839571E37D9370E32A95E1F71124E3
:10422000EF90FF900F911F91CF91DF91992787FD1C
:1042300090950895992788270895FB01DC01415046
:10424000504088F08D9181341CF08B350CF4805EE9
:10425000659161341CF06B350CF4605E861B611156
:1042600071F3990B0895881BFCCFDC01FC01672FCB
:1042700071917723E1F7329704C07C916D9370833D
:104280006291AE17BF07C8F308950E948721A59FCA
:10429000900DB49F900DA49F800D911D1124089541
:1042A0002F923F924F925F926F927F928F929F9246
:1042B000AF92BF92CF92DF92EF92FF920F931F9334
:1042C000CF93DF93CDB7DEB7CA1BDB0B0FB6F894E5
:1042D000DEBF0FBECDBF09942A88398848885F8425
:1042E0006E847D848C849B84AA84B984C884DF8096
:1042F000EE80FD800C811B81AA81B981CE0FD11D7A
:104300000FB6F894DEBF0FBECDBFED010895A29F9A
:10431000B001B39FC001A39F700D811D1124911D99
:10432000B29F700D811D1124911D089511E0CFE3FE
:10433000D1E004C0FE010E94621A2196C034D10768
:06434000C9F7F894FFCF5D
:1043460000006C032000C80000000B150B154B6520
:1043560079203A20004B6579507265737365642045
:104366003A20004B65795072657373203A20436199
:104376006E63656C65640053657269616C20537485
:104386006172747570004D6F646275732053746149
:1043960072747570002447504747412C00530057EC
:1043A60000244750524D432C0024474E524D432C77
:1043B600002F003A00000003000200050000000381
:1043C60000050001000400060002000400000000D1
:1043D600002D0A95149A0A0C0A820A810A00000026
:1043E600004A139514CB12E512D71228130D0A00B2
:0E43F6006E616E00696E66006F7666002E00C6
:00000001FF
